{
  "transactions": [
    {
      "hash": "0x24533cdbd3c1c337dead29f67c7ac0c01fb84dfc3dcd050f34ac0d7f901e786d",
      "transactionType": "CALL",
      "contractName": null,
      "contractAddress": "0x97c3d6dd3e2ad525e62b13699d42c81f459eaca2",
      "function": "updatePrice(address,uint256)",
      "arguments": [
        "0x00000000000000000000000000000000006D4b2a",
        "40000000"
      ],
      "transaction": {
        "from": "0x5f55f4537b30c5e5b8aa1fdab4d84f7f59aa1bb6",
        "to": "0x97c3d6dd3e2ad525e62b13699d42c81f459eaca2",
        "value": "0x0",
        "input": "0x457972de00000000000000000000000000000000000000000000000000000000006d4b2a0000000000000000000000000000000000000000000000000000000002625a00",
        "nonce": "0x2e",
        "chainId": "0x128"
      },
      "additionalContracts": [],
      "isFixedGasLimit": false
    }
  ],
  "receipts": [
    {
      "status": "0x1",
      "cumulativeGasUsed": "0x9848",
      "logs": [
        {
          "address": "0x97c3d6dd3e2ad525e62b13699d42c81f459eaca2",
          "topics": [
            "0xb556fac599c3c70efb9ab1fa725ecace6c81cc48d1455f886607def065f3e0c0",
            "0x00000000000000000000000000000000000000000000000000000000006d4b2a"
          ],
          "data": "0x0000000000000000000000000000000000000000000000000000000002625a000000000000000000000000000000000000000000000000000000000069043c18",
          "blockHash": "0x97d87c4172c1f4852d269c365d91e150fe7e08e7bb5f3e53ce9ef13915b76418",
          "blockNumber": "0x19ac1f1",
          "blockTimestamp": "0x69043c17",
          "transactionHash": "0x24533cdbd3c1c337dead29f67c7ac0c01fb84dfc3dcd050f34ac0d7f901e786d",
          "transactionIndex": "0xe",
          "logIndex": "0x0",
          "removed": false
        }
      ],
      "logsBloom": "0x00000000000000000000000000000000000000000000000000000000000000000000000000000000400000000000000000000000000000000000000000000000000000000000000000200000000000000000000000000000000000000000000000000000000000000000000000000000000014000000000000000000000000000000000000000000000000000000000000000000000000000000000000000000000000000000000100000000000800000000000000000000000000010000000000000001000000000000000000000000000000000000000000000000000000000000000000000000000000000000000000000000000000000000000000000010",
      "type": "0x2",
      "transactionHash": "0x24533cdbd3c1c337dead29f67c7ac0c01fb84dfc3dcd050f34ac0d7f901e786d",
      "transactionIndex": "0xe",
      "blockHash": "0x97d87c4172c1f4852d269c365d91e150fe7e08e7bb5f3e53ce9ef13915b76418",
      "blockNumber": "0x19ac1f1",
      "gasUsed": "0x9848",
      "effectiveGasPrice": "0x66720b3000",
      "from": "0x5f55f4537b30c5e5b8aa1fdab4d84f7f59aa1bb6",
      "to": "0x97c3d6dd3e2ad525e62b13699d42c81f459eaca2",
      "contractAddress": "0x97c3d6dd3e2ad525e62b13699d42c81f459eaca2",
      "root": "0x56e81f171bcc55a6ff8345e692c0f86e5b48e01b996cadc001622fb5e363b421"
    }
  ],
  "libraries": [],
  "pending": [],
  "returns": {},
  "timestamp": 1761885211861,
  "chain": 296,
  "commit": "ea46de8"
}