{
  "transactions": [
    {
      "hash": "0x4779a6eefe0dfe11991beea15c1db70152425dfed7cad8a4ff6f2762d2af8ffe",
      "transactionType": "CALL",
      "contractName": null,
      "contractAddress": "0xfedbe18bdbd1ae52b0b8d529c8ce7b0213e5d317",
      "function": "updatePrice(address,uint256)",
      "arguments": [
        "0x00000000000000000000000000000000006D4b2a",
        "100"
      ],
      "transaction": {
        "from": "0x5f55f4537b30c5e5b8aa1fdab4d84f7f59aa1bb6",
        "to": "0xfedbe18bdbd1ae52b0b8d529c8ce7b0213e5d317",
        "value": "0x0",
        "input": "0x457972de00000000000000000000000000000000000000000000000000000000006d4b2a0000000000000000000000000000000000000000000000000000000000000064",
        "nonce": "0x35",
        "chainId": "0x128"
      },
      "additionalContracts": [],
      "isFixedGasLimit": false
    }
  ],
  "receipts": [
    {
      "status": "0x1",
      "cumulativeGasUsed": "0x9830",
      "logs": [
        {
          "address": "0xfedbe18bdbd1ae52b0b8d529c8ce7b0213e5d317",
          "topics": [
            "0xb556fac599c3c70efb9ab1fa725ecace6c81cc48d1455f886607def065f3e0c0",
            "0x00000000000000000000000000000000000000000000000000000000006d4b2a"
          ],
          "data": "0x00000000000000000000000000000000000000000000000000000000000000640000000000000000000000000000000000000000000000000000000069044110",
          "blockHash": "0x0663f923c7af2eb435f842e17bda923187e2c8b9269c2990887f4d33f82c5146",
          "blockNumber": "0x19ac46f",
          "blockTimestamp": "0x69044112",
          "transactionHash": "0x4779a6eefe0dfe11991beea15c1db70152425dfed7cad8a4ff6f2762d2af8ffe",
          "transactionIndex": "0x3",
          "logIndex": "0x0",
          "removed": false
        }
      ],
      "logsBloom": "0x00000000000000000000000000000000000000000000000000000100000000000000000000004000400000000000000000000000000000000000000000000000000000000000000000200000000000000000000000000000000000000000000000000000000000000000000200000000000004000000000000000000000000000000000000000000000000000000000000000000000000000000000000000000000000000000000100000000000800000000000000000000000000000000000000000000000000000000000000000000000000000000000000000000000000000000000000000000000000000000000000000000000000000000000000000010",
      "type": "0x2",
      "transactionHash": "0x4779a6eefe0dfe11991beea15c1db70152425dfed7cad8a4ff6f2762d2af8ffe",
      "transactionIndex": "0x3",
      "blockHash": "0x0663f923c7af2eb435f842e17bda923187e2c8b9269c2990887f4d33f82c5146",
      "blockNumber": "0x19ac46f",
      "gasUsed": "0x9830",
      "effectiveGasPrice": "0x66720b3000",
      "from": "0x5f55f4537b30c5e5b8aa1fdab4d84f7f59aa1bb6",
      "to": "0xfedbe18bdbd1ae52b0b8d529c8ce7b0213e5d317",
      "contractAddress": "0xfedbe18bdbd1ae52b0b8d529c8ce7b0213e5d317",
      "root": "0x56e81f171bcc55a6ff8345e692c0f86e5b48e01b996cadc001622fb5e363b421"
    }
  ],
  "libraries": [],
  "pending": [],
  "returns": {},
  "timestamp": 1761886488285,
  "chain": 296,
  "commit": "ea46de8"
}