{
  "transactions": [
    {
      "hash": "0x3b8957264f960a43271acaf11b8905bff53f03304ba686fb51f485c40745cd24",
      "transactionType": "CREATE",
      "contractName": "MockHeNGN",
      "contractAddress": "0xbad104980557845913a5cc503e0b2fccd9bef926",
      "function": null,
      "arguments": null,
      "transaction": {
        "from": "0x5f55f4537b30c5e5b8aa1fdab4d84f7f59aa1bb6",
        "value": "0x0",
        "input": "0x6080604052346103f457604080519081016001600160401b03811182821017610307576040908152601582527f486564657261204e6967657269616e204e616972610000000000000000000000602083015280519081016001600160401b038111828210176103075760405260058152643432a723a760d91b602082015281516001600160401b03811161030757600354600181811c911680156103ea575b60208210146102e957601f8111610387575b50602092601f821160011461032657928192935f9261031b575b50508160011b915f199060031b1c1916176003555b80516001600160401b03811161030757600454600181811c911680156102fd575b60208210146102e957601f8111610286575b50602091601f8211600114610226579181925f9261021b575b50508160011b915f199060031b1c1916176004555b33156102085760058054336001600160a01b0319821681179092556001600160a01b03167f8be0079c531659141344cd1fd0a4f28419497f9722a3daafe3b4186f6b6457e05f80a36002546402540be40081018091116101f457600255335f525f60205260405f206402540be40081540190556040516402540be40081525f7fddf252ad1be2c89b69c2b068fc378daa952ba7f163c4a11628f55a4df523b3ef60203393a360405161089390816103f98239f35b634e487b7160e01b5f52601160045260245ffd5b631e4fbdf760e01b5f525f60045260245ffd5b015190505f8061012b565b601f1982169260045f52805f20915f5b85811061026e57508360019510610256575b505050811b01600455610140565b01515f1960f88460031b161c191690555f8080610248565b91926020600181928685015181550194019201610236565b60045f527f8a35acfbc15ff81a39ae7d344fd709f28e8600b4aa8c65c6b64bfe7fe36bd19b601f830160051c810191602084106102df575b601f0160051c01905b8181106102d45750610112565b5f81556001016102c7565b90915081906102be565b634e487b7160e01b5f52602260045260245ffd5b90607f1690610100565b634e487b7160e01b5f52604160045260245ffd5b015190505f806100ca565b601f1982169360035f52805f20915f5b86811061036f5750836001959610610357575b505050811b016003556100df565b01515f1960f88460031b161c191690555f8080610349565b91926020600181928685015181550194019201610336565b60035f527fc2575a0e9e593c00f959f8c92f12db2869c3395a3b0502d05e2516446f71f85b601f830160051c810191602084106103e0575b601f0160051c01905b8181106103d557506100b0565b5f81556001016103c8565b90915081906103bf565b90607f169061009e565b5f80fdfe6080806040526004361015610012575f80fd5b5f3560e01c90816306fdde031461067a57508063095ea7b3146105f857806318160ddd146105db57806323b872dd146104fc578063313ce567146104e157806340c10f191461043657806342966c681461039657806370a082311461035f578063715018a6146103045780638da5cb5b146102dc57806395d89b41146101c1578063a9059cbb14610190578063dd62ed3e146101405763f2fde38b146100b6575f80fd5b3461013c57602036600319011261013c576100cf610773565b6100d7610836565b6001600160a01b0316801561012957600580546001600160a01b0319811683179091556001600160a01b03167f8be0079c531659141344cd1fd0a4f28419497f9722a3daafe3b4186f6b6457e05f80a3005b631e4fbdf760e01b5f525f60045260245ffd5b5f80fd5b3461013c57604036600319011261013c57610159610773565b610161610789565b6001600160a01b039182165f908152600160209081526040808320949093168252928352819020549051908152f35b3461013c57604036600319011261013c576101b66101ac610773565b602435903361079f565b602060405160018152f35b3461013c575f36600319011261013c576040515f6004548060011c906001811680156102d2575b6020831081146102be578285529081156102a2575060011461024d575b50819003601f01601f191681019067ffffffffffffffff8211818310176102395761023582918260405282610749565b0390f35b634e487b7160e01b5f52604160045260245ffd5b905060045f527f8a35acfbc15ff81a39ae7d344fd709f28e8600b4aa8c65c6b64bfe7fe36bd19b5f905b82821061028c57506020915082010182610205565b6001816020925483858801015201910190610277565b90506020925060ff191682840152151560051b82010182610205565b634e487b7160e01b5f52602260045260245ffd5b91607f16916101e8565b3461013c575f36600319011261013c576005546040516001600160a01b039091168152602090f35b3461013c575f36600319011261013c5761031c610836565b600580546001600160a01b031981169091555f906001600160a01b03167f8be0079c531659141344cd1fd0a4f28419497f9722a3daafe3b4186f6b6457e08280a3005b3461013c57602036600319011261013c576001600160a01b03610380610773565b165f525f602052602060405f2054604051908152f35b3461013c57602036600319011261013c57600435331561042357335f525f60205260405f205481811061040a5790805f923384528360205203604083205580600254036002556040519081527fddf252ad1be2c89b69c2b068fc378daa952ba7f163c4a11628f55a4df523b3ef60203392a3005b63391434e360e21b5f523360045260245260445260645ffd5b634b637e8f60e11b5f525f60045260245ffd5b3461013c57604036600319011261013c5761044f610773565b6001600160a01b031660243581156104ce57600254908082018092116104ba5760207fddf252ad1be2c89b69c2b068fc378daa952ba7f163c4a11628f55a4df523b3ef915f9360025584845283825260408420818154019055604051908152a3602060405160018152f35b634e487b7160e01b5f52601160045260245ffd5b63ec442f0560e01b5f525f60045260245ffd5b3461013c575f36600319011261013c57602060405160028152f35b3461013c57606036600319011261013c57610515610773565b61051d610789565b6001600160a01b0382165f818152600160209081526040808320338452909152902054909260443592915f19811061055b575b506101b6935061079f565b8381106105c05784156105ad57331561059a576101b6945f52600160205260405f2060018060a01b0333165f526020528360405f209103905584610550565b634a1406b160e11b5f525f60045260245ffd5b63e602df0560e01b5f525f60045260245ffd5b8390637dc7a0d960e11b5f523360045260245260445260645ffd5b3461013c575f36600319011261013c576020600254604051908152f35b3461013c57604036600319011261013c57610611610773565b6024359033156105ad576001600160a01b031690811561059a57335f52600160205260405f20825f526020528060405f20556040519081527f8c5be1e5ebec7d5bd14f71427d1e84f3dd0314c0f7b2291e5b200ac8c7c3b92560203392a3602060405160018152f35b3461013c575f36600319011261013c575f6003548060011c9060018116801561073f575b6020831081146102be578285529081156102a257506001146106ea5750819003601f01601f191681019067ffffffffffffffff8211818310176102395761023582918260405282610749565b905060035f527fc2575a0e9e593c00f959f8c92f12db2869c3395a3b0502d05e2516446f71f85b5f905b82821061072957506020915082010182610205565b6001816020925483858801015201910190610714565b91607f169161069e565b602060409281835280519182918282860152018484015e5f828201840152601f01601f1916010190565b600435906001600160a01b038216820361013c57565b602435906001600160a01b038216820361013c57565b6001600160a01b0316908115610423576001600160a01b03169182156104ce57815f525f60205260405f205481811061081d57817fddf252ad1be2c89b69c2b068fc378daa952ba7f163c4a11628f55a4df523b3ef92602092855f525f84520360405f2055845f525f825260405f20818154019055604051908152a3565b8263391434e360e21b5f5260045260245260445260645ffd5b6005546001600160a01b0316330361084a57565b63118cdaa760e01b5f523360045260245ffdfea2646970667358221220e6d840899b3252676fa5550aa7c425d09a0f7a282855a78635746137bd96490c64736f6c634300081e0033",
        "nonce": "0x31",
        "chainId": "0x128"
      },
      "additionalContracts": [],
      "isFixedGasLimit": false
    },
    {
      "hash": "0xb7942849dc670ca695b6cb98916d77c95eb6a7022b1a86d76e85311466d6084b",
      "transactionType": "CALL",
      "contractName": "MockHeNGN",
      "contractAddress": "0xbad104980557845913a5cc503e0b2fccd9bef926",
      "function": "mint(address,uint256)",
      "arguments": [
        "0x7a52108e24d71fFcD9733Bcd1DB89F7741Ae0375",
        "100000000000"
      ],
      "transaction": {
        "from": "0x5f55f4537b30c5e5b8aa1fdab4d84f7f59aa1bb6",
        "to": "0xbad104980557845913a5cc503e0b2fccd9bef926",
        "value": "0x0",
        "input": "0x40c10f190000000000000000000000007a52108e24d71ffcd9733bcd1db89f7741ae0375000000000000000000000000000000000000000000000000000000174876e800",
        "nonce": "0x32",
        "chainId": "0x128"
      },
      "additionalContracts": [],
      "isFixedGasLimit": false
    }
  ],
  "receipts": [
    {
      "status": "0x1",
      "cumulativeGasUsed": "0x2d970a",
      "logs": [
        {
          "address": "0xbad104980557845913a5cc503e0b2fccd9bef926",
          "topics": [
            "0x8be0079c531659141344cd1fd0a4f28419497f9722a3daafe3b4186f6b6457e0",
            "0x0000000000000000000000000000000000000000000000000000000000000000",
            "0x0000000000000000000000005f55f4537b30c5e5b8aa1fdab4d84f7f59aa1bb6"
          ],
          "data": "0x",
          "blockHash": "0xff843dd0cb9d4cd70fa5e297d11ad69fb20a07f8429898776448f1d2846f5fd8",
          "blockNumber": "0x19ac248",
          "blockTimestamp": "0x69043cc5",
          "transactionHash": "0x3b8957264f960a43271acaf11b8905bff53f03304ba686fb51f485c40745cd24",
          "transactionIndex": "0x13",
          "logIndex": "0xb",
          "removed": false
        },
        {
          "address": "0xbad104980557845913a5cc503e0b2fccd9bef926",
          "topics": [
            "0xddf252ad1be2c89b69c2b068fc378daa952ba7f163c4a11628f55a4df523b3ef",
            "0x0000000000000000000000000000000000000000000000000000000000000000",
            "0x0000000000000000000000005f55f4537b30c5e5b8aa1fdab4d84f7f59aa1bb6"
          ],
          "data": "0x00000000000000000000000000000000000000000000000000000002540be400",
          "blockHash": "0xff843dd0cb9d4cd70fa5e297d11ad69fb20a07f8429898776448f1d2846f5fd8",
          "blockNumber": "0x19ac248",
          "blockTimestamp": "0x69043cc5",
          "transactionHash": "0x3b8957264f960a43271acaf11b8905bff53f03304ba686fb51f485c40745cd24",
          "transactionIndex": "0x13",
          "logIndex": "0xc",
          "removed": false
        }
      ],
      "logsBloom": "0x00000000000000000000000000000000000000000000000000800000000000000000000000000000000000000000000000000000200000000080000000000000000000000000000000000008000000000001000000000000000000000000000000008000020000000000000001000800000000000000000000000010000000400000000000000000000000000000000000000000000000000000000000000000000000000000000000000000000000000000000000000000000000000000000000000002000000000000000000000000000000000000000000000000000020000000000000000000000000000000000000000000000000000000020000008000",
      "type": "0x2",
      "transactionHash": "0x3b8957264f960a43271acaf11b8905bff53f03304ba686fb51f485c40745cd24",
      "transactionIndex": "0x13",
      "blockHash": "0xff843dd0cb9d4cd70fa5e297d11ad69fb20a07f8429898776448f1d2846f5fd8",
      "blockNumber": "0x19ac248",
      "gasUsed": "0xb55d0",
      "effectiveGasPrice": "0x66720b3000",
      "from": "0x5f55f4537b30c5e5b8aa1fdab4d84f7f59aa1bb6",
      "to": null,
      "contractAddress": "0xbad104980557845913a5cc503e0b2fccd9bef926",
      "root": "0x56e81f171bcc55a6ff8345e692c0f86e5b48e01b996cadc001622fb5e363b421"
    },
    {
      "status": "0x1",
      "cumulativeGasUsed": "0xddfa",
      "logs": [
        {
          "address": "0xbad104980557845913a5cc503e0b2fccd9bef926",
          "topics": [
            "0xddf252ad1be2c89b69c2b068fc378daa952ba7f163c4a11628f55a4df523b3ef",
            "0x0000000000000000000000000000000000000000000000000000000000000000",
            "0x0000000000000000000000007a52108e24d71ffcd9733bcd1db89f7741ae0375"
          ],
          "data": "0x000000000000000000000000000000000000000000000000000000174876e800",
          "blockHash": "0xf6f351f13af6830ce055a0c2ffb6a2b35513dc0203e5044849115bef573dd368",
          "blockNumber": "0x19ac24b",
          "blockTimestamp": "0x69043ccb",
          "transactionHash": "0xb7942849dc670ca695b6cb98916d77c95eb6a7022b1a86d76e85311466d6084b",
          "transactionIndex": "0x2c",
          "logIndex": "0x0",
          "removed": false
        }
      ],
      "logsBloom": "0x00000000000000000000000000000000000000000000000000000000000000000000000000000000000000000000000000000000200000000080000080000000000000000000000000000008000002000000000000000000000000000000000000008000020000000000000000000800000000000000000000000010000000000000000000000000000000000000000000000000000000000000000000000000000000000000000000000000000000000000000000000000000000000000000000000002000000000000100000000000000000000000000000000000000020000000000000000000000000000000000000000000000000000000000000000000",
      "type": "0x2",
      "transactionHash": "0xb7942849dc670ca695b6cb98916d77c95eb6a7022b1a86d76e85311466d6084b",
      "transactionIndex": "0x2c",
      "blockHash": "0xf6f351f13af6830ce055a0c2ffb6a2b35513dc0203e5044849115bef573dd368",
      "blockNumber": "0x19ac24b",
      "gasUsed": "0xddfa",
      "effectiveGasPrice": "0x66720b3000",
      "from": "0x5f55f4537b30c5e5b8aa1fdab4d84f7f59aa1bb6",
      "to": "0xbad104980557845913a5cc503e0b2fccd9bef926",
      "contractAddress": "0xbad104980557845913a5cc503e0b2fccd9bef926",
      "root": "0x56e81f171bcc55a6ff8345e692c0f86e5b48e01b996cadc001622fb5e363b421"
    }
  ],
  "libraries": [],
  "pending": [],
  "returns": {},
  "timestamp": 1761885390311,
  "chain": 296,
  "commit": "ea46de8"
}