{
  "transactions": [
    {
      "hash": "0xf75378da85c8bc8951373ad1931f8424c643b29dd3b792015584f0973e9f79d1",
      "transactionType": "CALL",
      "contractName": null,
      "contractAddress": "0x97c3d6dd3e2ad525e62b13699d42c81f459eaca2",
      "function": "updatePrice(address,uint256)",
      "arguments": [
        "0x00000000000000000000000000000000006D4b2a",
        "6000000"
      ],
      "transaction": {
        "from": "0x5f55f4537b30c5e5b8aa1fdab4d84f7f59aa1bb6",
        "to": "0x97c3d6dd3e2ad525e62b13699d42c81f459eaca2",
        "value": "0x0",
        "input": "0x457972de00000000000000000000000000000000000000000000000000000000006d4b2a00000000000000000000000000000000000000000000000000000000005b8d80",
        "nonce": "0x2b",
        "chainId": "0x128"
      },
      "additionalContracts": [],
      "isFixedGasLimit": false
    }
  ],
  "receipts": [
    {
      "status": "0x1",
      "cumulativeGasUsed": "0x12a9c",
      "logs": [
        {
          "address": "0x97c3d6dd3e2ad525e62b13699d42c81f459eaca2",
          "topics": [
            "0xb556fac599c3c70efb9ab1fa725ecace6c81cc48d1455f886607def065f3e0c0",
            "0x00000000000000000000000000000000000000000000000000000000006d4b2a"
          ],
          "data": "0x00000000000000000000000000000000000000000000000000000000005b8d800000000000000000000000000000000000000000000000000000000069043b1c",
          "blockHash": "0xe8f88581095864474a23d50b3559b1fa38ad0b77aa76ecb1c99a93cdc32d7a64",
          "blockNumber": "0x19ac174",
          "blockTimestamp": "0x69043b1d",
          "transactionHash": "0xf75378da85c8bc8951373ad1931f8424c643b29dd3b792015584f0973e9f79d1",
          "transactionIndex": "0x7",
          "logIndex": "0x0",
          "removed": false
        }
      ],
      "logsBloom": "0x00000000000000000000000000000000000000000000000000000000000000000000000000000000400000000000000000000000000000000000000000000000000000000000000000200000000000000000000000000000000000000000000000000000000000000000000000000000000014000000000000000000000000000000000000000000000000000000000000000000000000000000000000000000000000000000000100000000000800000000000000000000000000010000000000000001000000000000000000000000000000000000000000000000000000000000000000000000000000000000000000000000000000000000000000000010",
      "type": "0x2",
      "transactionHash": "0xf75378da85c8bc8951373ad1931f8424c643b29dd3b792015584f0973e9f79d1",
      "transactionIndex": "0x7",
      "blockHash": "0xe8f88581095864474a23d50b3559b1fa38ad0b77aa76ecb1c99a93cdc32d7a64",
      "blockNumber": "0x19ac174",
      "gasUsed": "0x12a9c",
      "effectiveGasPrice": "0x66720b3000",
      "from": "0x5f55f4537b30c5e5b8aa1fdab4d84f7f59aa1bb6",
      "to": "0x97c3d6dd3e2ad525e62b13699d42c81f459eaca2",
      "contractAddress": "0x97c3d6dd3e2ad525e62b13699d42c81f459eaca2",
      "root": "0x56e81f171bcc55a6ff8345e692c0f86e5b48e01b996cadc001622fb5e363b421"
    }
  ],
  "libraries": [],
  "pending": [],
  "returns": {},
  "timestamp": 1761884961642,
  "chain": 296,
  "commit": "ea46de8"
}