{
  "transactions": [
    {
      "hash": "0x4df86149804b80bc62b3a7328d6b08b887b0625051df3d43bb715f3c4a974d3b",
      "transactionType": "CALL",
      "contractName": null,
      "contractAddress": "0xdeac836eb078b734b362dadeb5cbb2862d36001d",
      "function": "mint(address,uint256)",
      "arguments": [
        "0xf3BfaDfff32d72f729cb6F15E3a933420bAc73bF",
        "1000000000"
      ],
      "transaction": {
        "from": "0x5f55f4537b30c5e5b8aa1fdab4d84f7f59aa1bb6",
        "to": "0xdeac836eb078b734b362dadeb5cbb2862d36001d",
        "gas": "0x118cf",
        "value": "0x0",
        "input": "0x40c10f19000000000000000000000000f3bfadfff32d72f729cb6f15e3a933420bac73bf000000000000000000000000000000000000000000000000000000003b9aca00",
        "nonce": "0x1d",
        "chainId": "0x128"
      },
      "additionalContracts": [],
      "isFixedGasLimit": false
    }
  ],
  "receipts": [
    {
      "status": "0x1",
      "cumulativeGasUsed": "0x159ad",
      "logs": [
        {
          "address": "0xdeac836eb078b734b362dadeb5cbb2862d36001d",
          "topics": [
            "0xddf252ad1be2c89b69c2b068fc378daa952ba7f163c4a11628f55a4df523b3ef",
            "0x0000000000000000000000000000000000000000000000000000000000000000",
            "0x000000000000000000000000f3bfadfff32d72f729cb6f15e3a933420bac73bf"
          ],
          "data": "0x000000000000000000000000000000000000000000000000000000003b9aca00",
          "blockHash": "0x9ac8fe52e6561124d816436c30971bc4758fe5c60221b1e0b8163bea084b3853",
          "blockNumber": "0x195c192",
          "blockTimestamp": "0x68fa3ae1",
          "transactionHash": "0x4df86149804b80bc62b3a7328d6b08b887b0625051df3d43bb715f3c4a974d3b",
          "transactionIndex": "0xd",
          "logIndex": "0x1",
          "removed": false
        }
      ],
      "logsBloom": "0x00000000000000000000000000000000000000000000000000000000000000000000000000000000000000000000000000000000000000000000000000000000000000000000000000000008000000000000000000000000000000000000000000000000020000000000000000000800000000000000000000000010000000000000000000000000040200000000000000000000000000000000000000000000000000000000000000000000000000000000000000000000000000000000002000000002000000000000000000000000000000000000001000000000000020000000000000000000000000000000000001000000000000000000000000040000",
      "type": "0x0",
      "transactionHash": "0x4df86149804b80bc62b3a7328d6b08b887b0625051df3d43bb715f3c4a974d3b",
      "transactionIndex": "0xd",
      "blockHash": "0x9ac8fe52e6561124d816436c30971bc4758fe5c60221b1e0b8163bea084b3853",
      "blockNumber": "0x195c192",
      "gasUsed": "0xcb4e",
      "effectiveGasPrice": "0x746a528800",
      "from": "0x5f55f4537b30c5e5b8aa1fdab4d84f7f59aa1bb6",
      "to": "0xdeac836eb078b734b362dadeb5cbb2862d36001d",
      "contractAddress": "0xdeac836eb078b734b362dadeb5cbb2862d36001d",
      "root": "0x56e81f171bcc55a6ff8345e692c0f86e5b48e01b996cadc001622fb5e363b421"
    }
  ],
  "libraries": [],
  "pending": [],
  "returns": {},
  "timestamp": 1761229541295,
  "chain": 296,
  "commit": "58c3dbd"
}