{
  "transactions": [
    {
      "hash": "0xc0cef8fa5281845672c133200beb50376eaf5cbe0db6e86390175475f3473698",
      "transactionType": "CALL",
      "contractName": null,
      "contractAddress": "0xdeac836eb078b734b362dadeb5cbb2862d36001d",
      "function": "mint(address,uint256)",
      "arguments": [
        "0x8d56461b9e7f8a7ba79f0A5Ff274a60A2581A235",
        "1000000000"
      ],
      "transaction": {
        "from": "0x5f55f4537b30c5e5b8aa1fdab4d84f7f59aa1bb6",
        "to": "0xdeac836eb078b734b362dadeb5cbb2862d36001d",
        "gas": "0x118cf",
        "value": "0x0",
        "input": "0x40c10f190000000000000000000000008d56461b9e7f8a7ba79f0a5ff274a60a2581a235000000000000000000000000000000000000000000000000000000003b9aca00",
        "nonce": "0x15",
        "chainId": "0x128"
      },
      "additionalContracts": [],
      "isFixedGasLimit": false
    }
  ],
  "receipts": [
    {
      "status": "0x1",
      "cumulativeGasUsed": "0xa5faf",
      "logs": [
        {
          "address": "0xdeac836eb078b734b362dadeb5cbb2862d36001d",
          "topics": [
            "0xddf252ad1be2c89b69c2b068fc378daa952ba7f163c4a11628f55a4df523b3ef",
            "0x0000000000000000000000000000000000000000000000000000000000000000",
            "0x0000000000000000000000008d56461b9e7f8a7ba79f0a5ff274a60a2581a235"
          ],
          "data": "0x000000000000000000000000000000000000000000000000000000003b9aca00",
          "blockHash": "0x66969aed98df94eb2592cae5b3156e0f1ad46bb49e1e510d86a0c44665976738",
          "blockNumber": "0x195afa0",
          "blockTimestamp": "0x68fa16fc",
          "transactionHash": "0xc0cef8fa5281845672c133200beb50376eaf5cbe0db6e86390175475f3473698",
          "transactionIndex": "0x6",
          "logIndex": "0x0",
          "removed": false
        }
      ],
      "logsBloom": "0x00000000000000000000000000000000000000000000000000000000000000000000000000000000000000000000000000000000000000000000000040000000000000000000000000000008000000000000000000000000000000000000000000000000020000000000000000000800000000000000000000000010000000000000000000000000040000000000000000000000000000000000000000000000000000000000000000000000000000000000000000000000000000000000000000000002000000000000000000000002000000000000001000000000000020000000000000000000000000000000000000040000000000000000000000040000",
      "type": "0x0",
      "transactionHash": "0xc0cef8fa5281845672c133200beb50376eaf5cbe0db6e86390175475f3473698",
      "transactionIndex": "0x6",
      "blockHash": "0x66969aed98df94eb2592cae5b3156e0f1ad46bb49e1e510d86a0c44665976738",
      "blockNumber": "0x195afa0",
      "gasUsed": "0xcb4e",
      "effectiveGasPrice": "0x746a528800",
      "from": "0x5f55f4537b30c5e5b8aa1fdab4d84f7f59aa1bb6",
      "to": "0xdeac836eb078b734b362dadeb5cbb2862d36001d",
      "contractAddress": "0xdeac836eb078b734b362dadeb5cbb2862d36001d",
      "root": "0x56e81f171bcc55a6ff8345e692c0f86e5b48e01b996cadc001622fb5e363b421"
    }
  ],
  "libraries": [],
  "pending": [],
  "returns": {},
  "timestamp": 1761220353167,
  "chain": 296,
  "commit": "58c3dbd"
}